:02000002D0002C
:1040000000400D005C980D00000006000C0005014A
:084010000401BC0400000000E3
:10401800707D0D0009480A49884208B505D0094A4B
:10402800824202D0121A03F0A7FD0748074A00216E
:10403800121A03F0ACFD014808BD00BF8CCE032066
:10404800C8830D00F8E20320F8E20320F0E703201C
:1040580070B502F06BFD074C074BE41AA408002565
:104068001E46A54204D056F8253098470135F8E792
:1040780070BD00BFC0830D0070830D0000F024BF29
:1040880008B500F09FFDBDE8084002F01DBD01F035
:10409800DFBB01F0E5BB01F0E3BB0078B0FA80F0CC
:1040A800400970470123037070470368C9B29B68D1
:1040B800184770470123C372704737B50446002973
:1040C8005FD0087A20720B7823704B7A63724B6842
:1040D80063608B7AA3720025002102F067FD4FF020
:1040E800FF3302226168207A009501F06FFF0121F9
:1040F800A07A02F05BFD2946A07A02F068FD012152
:10410800607A02F053FD2946607A02F060FD0120D2
:1041180001F0CEFB2946607A02F048FD1E2001F02E
:10412800C7FB02F0C5FD217801F03DFF02F0C0FD9C
:10413800F421FFF7BAFF02F0BBFD01F03FFF1E209C
:1041480001F0B6FB02F0B4FD217801F02CFF02F07B
:10415800AFFD2946FFF7A9FF02F0AAFD01F02EFFE7
:1041680002F0A6FD0122217801F015FF02F0A0FD62
:1041780003685B69984710F0900F14BF2846032026
:1041880000E0012003B030BD37B5FCEEE00ABCEE1C
:10419800C00A10EE903A5B008DF8043010EE103A29
:1041A800054619335B0000248DF806308DF805406C
:1041B8008DF8074002F07CFD297801F0F4FE02F04A
:1041C80077FD0521FFF771FF02F072FD03680422F5
:1041D800DB680DEB0201984702F06AFD01F0EEFE84
:1041E800204603B030BD38B5054602F061FD297898
:1041F80001F0D9FE02F05CFD0121FFF756FF02F045
:1042080057FD2821FFF751FF02F052FD01F0D6FEBD
:10421800044608BB02F04CFD297801F0C4FE02F008
:1042280047FD0221FFF741FF02F042FD214601F060
:10423800C1FE88B902F03CFD0422297801F0ABFEEA
:1042480002F036FD03681B69984728B102F030FD7B
:1042580003685B699847F3E738BD13B5044602F075
:1042680027FD217801F09FFE02F022FD1121FFF7C2
:104278001CFF02F01DFD01F0A1FE02F019FD2178DE
:10428800022201F088FE02F013FD03685B6998477B
:104298008DF8040002F00CFD03685B6998478DF8FF
:1042A800050002F0F1FC022201A90A2001F0CCF875
:1042B800002002B010BD13B5044602F0E5FC02224E
:1042C80001A90A2001F0B8F89DF80430FF2B03D1AA
:1042D8009DF80530FF2B1CD002F0EAFC217801F094
:1042E80062FE02F0E5FC1121FFF7DFFE02F0E0FCC0
:1042F80003689DF804109B68984702F0D9FC03688E
:104308009DF805109B68984702F0D2FC01F056FE14
:1043180000E00B2002B010BD38B5C37A05460C4644
:10432800002B3AD00023C37202F0C2FC297801F0B6
:104338003AFE02F0BDFC0221FFF7B7FE02F0B8FC1E
:1043480001F03CFE02F0B4FC2978042201F023FEBF
:1043580002F0AEFC03685B69984785B2258002F0DD
:10436800A7FC03685B69984700EB0520208002F0F2
:104378009FFC03685B69984785B2658002F098FCEA
:1043880003685B699847238800EB05206080B3F5D4
:10439800C87F34BF0720002038BD022038BD70B563
:1043A80006460D4602F084FC317801F0FCFD02F06F
:1043B8007FFC2421FFF779FE02F07AFC01F0FEFD74
:1043C8000446D0B902F074FC0222317801F0E3FD12
:1043D800022814D102F06CFC03685B699847C0B2EC
:1043E800030900F00F002B70687002F061FC03688D
:1043F8005B699847A870204670BD042070BD0220F4
:1044080070BD00002DE9F043054687B00E4689B11E
:1044180001A9FFF7C4FF002840F0C48032789DF856
:1044280004309A4208D872789DF805309A4203D829
:104438000520B7E00120B5E002F0C4FA5B4901F0BD
:10444800EEFF0121687A02F0B1FB0021687A02F0E0
:10445800BEFB012001F02CFA0021687A02F0A6FBCD
:104468001E2001F025FA524B1868029002F0AAFAB1
:10447800504901F0D4FF02F01BFC297801F093FDAC
:1044880002F016FCF121FFF710FE02F011FC0368A0
:104498000422DB6802A9984702F00AFC01F08EFDAD
:1044A8000446B0BB4FF4FA7001F002FAB368D6F8CC
:1044B800049006AFF222DE0807F80C2D02F082FA0B
:1044C80033463D4A214601F0E3FFB44209EBC408F4
:1044D80026D002F077FA394A0021234601F0D8FFA6
:1044E800D8F80030CDF80D30D8F80430CDF81130B8
:1044F80002F0DEFB297801F056FD02F0D9FB0368D3
:104508000922DB683946984702F0D2FB01F056FDD4
:1045180008B1042046E0322001F0CAF90134D4E79A
:1045280002F0C6FB297801F03EFD02F0C1FBF32141
:10453800FFF7BBFD02F0BCFB01F040FD044600287C
:10454800E7D14FF4FA7001F0B3F902F0B1FB297822
:1045580001F029FD02F0ACFB2146FFF7A6FD02F0B1
:10456800A7FB01F02BFD04460028D2D102F0A0FBE6
:104578000122297801F00FFD02F09AFB03685B69BC
:10458800984700F03000302806D102F01BFA0C4999
:1045980001F045FF204605E002F014FA084901F051
:1045A8003EFF062007B0BDE8F08300BFA57D0D00E3
:1045B800847D0D00B27D0D00887D0D00C17E0D004B
:1045C800967D0D0000F050BF00F04EBF704710B54B
:1045D80004460121807A02F0E9FAA07A012102F06A
:1045E800F6FA637A042B04BF00236372002010BD1F
:1045F80010B500210446807A02F0D8FA042300207E
:104608006372E07210BD38B50D46044602F052F9E7
:104618004FF4165102F048F92B6823602B79A372E6
:104628000025E5722046FFF7E3FF284638BD437AA8
:104638000BB901234372704708B5807A02F090FAEB
:10464800431E5842584108BD30B5437A012B85B006
:10465800044621D102F02EF903681B699847012806
:104668001ADD2022002104F10C0003F090FA02F078
:1046780021F903685B699847C0B24228207377D153
:1046880002F018F903685B699847C0B24D2808BF63
:104698000323607308BF6372637A032B68D102F047
:1046A80009F903681B6998471D2861DD02F002F9C2
:1046B8001E2204F10E0101F06DFF04F10B0204F15A
:1046C8002901002312F8010F03448A429BB2F9D151
:1046D80094F82A1094F82B2002EB012292B293420C
:1046E80024D002F06FF9234901F099FE224B2349A7
:1046F8001A78234B1B7813438DF80030214A3C234A
:1047080002A801F053FA039DFDB16B68013B6B6091
:10471800DBB92B6828469B689847AB68013BAB60C0
:104728009BB92B682846DB6898470EE0E37A01338B
:10473800DBB2022BE3720BD802F0BCF803681B69EA
:104748009847002801DD012300E0002363720FE091
:10475800A27CE37C03EB0223A380227D637D0025FA
:1047680003EB0223E380E5722368201D98476572F6
:1047780005B030BDB87D0D00FCE20320A77E0D001A
:10478800FDE20320CC7D0D00034B01221A70034B80
:1047980002221A7000F068BEFDE20320FCE203204A
:1047A800014B01221A7070474AE303200368184737
:1047B800012A02D0022A02D004E0016002E00B685C
:1047C80000B10360002070470148FFF773BC00BFC9
:1047D80000E3032013B500210446084600F0BCFDA1
:1047E80002A90023204641F8043D00F0CDFD019CBC
:1047F8000CB1012323710021012000F0ADFD2CB183
:10480800236820469B6898470023237102B010BD97
:1048180010B58368044613B1032201469847204621
:1048280010BD38B5044670B1056835B12846FFF7A4
:10483800EFFF1021284602F082FA20461421BDE835
:10484800384002F07CBA38BD10B543690446BBB1A4
:10485800586800F061FD78B963695A7C12B95868E4
:1048680000F06AFD6369586800F06EFD6069002316
:10487800636128B1FFF7D5FF606908B1FFF7D1FF81
:10488800201DFFF7C5FF204610BD000008B500F049
:10489800C3FD014B186008BD08E7032030B587B099
:1048A8001D4600230446049322B1214B0593214B56
:1048B800029204930023E360049B21603BB102222F
:1048C80002A9201D9847059B2361049BE3601A49B0
:1048D800142002F03FFA30B10023037403604360F0
:1048E8008360C3604374606198B1144B83606369EB
:1048F8001349DC606069134B8DE8210009220430FC
:1049080000F002FD28B963691B7C43B900F00CFD77
:10491800F9E760690023636108B1FFF782FFFFF7D9
:10492800B5FF02A8FFF774FF204607B030BD00BFEF
:10493800B5470D00B9470D0008820D00816C0D00C8
:10494800F07D0D00194B0D00F0B500258E46154978
:104958000571856045610160044692E8030085B0F1
:1049680002AF04F10C0687E8030096E8030082E82A
:10497800030097E8030086E8030091686069906087
:104988006161D168A069D060A1618DE82800064AFC
:104998002346714604F1080000F0E6FC204605B005
:1049A800F0BD00BFE47D0D00DD470D0007B5806850
:1049B800002338B18DE80A00022100F0EDFCB0FABE
:1049C80080F0400903B05DF804FB000030B50546EF
:1049D8008DB01B481B4CFFF70BFE00226FF0004107
:1049E8001948FFF7E3FF2B68184D2360294604A8F0
:1049F80001F06BFE638822881549684601F0B2FE13
:104A0800694604A801F08BFE014608A801F05DFE86
:104A180008A9284601F064FE08A801F0D0FD684600
:104A280001F0CDFD04A801F0CAFD0A4B01221A705D
:104A380001F0C8FF084901F0F2FC0DB030BD00BF1D
:104A480074E3032046E30320A8E3032010E30320D4
:104A5800F77D0D004CE303200C7E0D0037B50546AD
:104A680000220C461146FFF7A1FFA868002340B1B9
:104A7800019300941A46194600F08EFCB0FA80F0B3
:104A8800400903B030BD000038B5104B036083689F
:104A98000446A3B16FF000410022FFF787FF002111
:104AA800A06800F099FC237903F0FF0513B100F02A
:104AB8003BFCF8E72946A06800F05EFCA56004F11D
:104AC8000C00FFF7A5FE204638BD00BFE47D0D00B1
:104AD80010B50446FFF7D8FF20461C2102F02FF935
:104AE800204610BD0148FFF7A2BD00BF74E30320B4
:104AF800826810B50AB902F03CF9C368BDE81040F5
:104B0800184708B5436913B10C30FFF7F1FF08BD2A
:104B180038B582680123044603741D4612B1C06883
:104B2800904703E0006808B1FFF7E2FF65740020D2
:104B3800BDE8384000F048BC38B5046805467CB18B
:104B48006368013B63605BB9236820469B689847AC
:104B5800A368013BA3601BB923682046DB6898471C
:104B6800284638BD1FB51148FFF766FDB8B101F0FA
:104B780029FF0F4901F053FC0E4B0F491A780F4BD0
:104B88001B7813438DF80030094A3C2302A801F032
:104B98000DF803A8FFF7D0FF0448FFF729FD084BDD
:104BA80001221A7005B05DF804FB00BF74E303200E
:104BB800157E0D0044E30320A77E0D004BE3032080
:104BC8004CE30320F0B58FB000F0D2FD08B900F037
:104BD800C7FD884D2B786BB3874C01F0F3FE8749EE
:104BE80001F01DFC214606A801F06FFD844906A8C6
:104BF80001F0A1FD01460AA801F067FD0AA92046B7
:104C080001F06EFD0AA801F0DAFC06A801F0D7FC55
:104C18007C4B226819787C4B1B780B438DF800304D
:104C28007A493C230AA800F0C1FF0BA8FFF784FFCC
:104C380000232B70764B774D1A78002A00F0B58048
:104C4800002275491A700AA801F000FD0AA96A48ED
:104C5800724C01F045FD0AA801F0B1FC7048FFF75D
:104C6800C7FC21466F4800F0CFFA002833D1D4EDB5
:104C7800010A94ED000A6C48FFF786FA5E4906A817
:104C880001F023FD206802F023FB064660680F460A
:104C980002F01EFB32463B46CDE90001634902A8FB
:104CA80001F060FD02A906A801F039FD01460AA835
:104CB80001F00BFD0AA9504801F012FD0AA801F005
:104CC8007EFC02A801F07BFC06A801F078FC01F04C
:104CD80079FE574912E0574B57491A784A4B1B78C7
:104CE80013438DF80030554A3C230AA800F05EFFB4
:104CF8000BA8FFF721FF01F065FE5149514C01F067
:104D08008EFB21464848FFF707FB10BB3A4906A827
:104D180001F0DBFC238862884B4902A801F022FDE0
:104D280002A906A801F0FBFC01460AA801F0CDFC87
:104D38000AA9314801F0D4FC0AA801F040FC02A8F5
:104D480001F03DFC06A801F03AFC01F03BFE3F49AA
:104D580021E002280CD101F035FE3D4901F05FFB4E
:104D680001F030FE0368DB69984701232B7014E0DB
:104D7800304B31491A78244B1B7813438DF8003097
:104D8800344A3C230AA800F011FF0BA8FFF7D4FE11
:104D980001F018FE304901F042FB2148FFF717FCEB
:104DA8006FF000412D48FFF759FE002000F054FB3A
:104DB8004FF47A72002302F041FD4FF46153B0FBC7
:104DC800F3F0274B1A68904203D918601648FFF78A
:104DD80044FA1348FFF738FC00F0CAFC18B1FFF793
:104DE80055FD00F0B5FC2B780BB9FFF74FFD0FB060
:104DF800F0BD00BF4CE3032010E30320227E0D002A
:104E08002C7E0D000CE303204BE303202E7E0D00C7
:104E18004AE30320FEE20320337E0D00A0E30320D3
:104E280074E303206CE3032000E30320357E0D00C8
:104E3800587E0D0044E30320A77E0D00617E0D001F
:104E4800667E0D006EE303206F7E0D00837E0D00ED
:104E58008C7E0D009D7E0D00A27E0D00A8E3032030
:104E680028E3032013460A46002101F011BB000085
:104E780037B5124D01F071FC2B689842044617D0E3
:104E880042F20F73984213D901F09CFD22460C4957
:104E9800FFF7E8FF0B4B2C60986860B100226FF0B9
:104EA8000043009301922346032100F075FA02E0C3
:104EB8004FF0FF3000E0012003B030BD84E2032052
:104EC800AB7E0D0050E3032030B58FB001F07AFDC2
:104ED800036800215B6A984701F074FD4FF416518E
:104EE80001F064FD01F0E4FE5E4901F041F801F0D3
:104EF800DFFE01F041F85C4800F079F9044668B13A
:104F080001F060FD22465949FFF7ACFF01F05AFD58
:104F18000368DB699847564B01221A7008238DF8FD
:104F280028305A238DF82030524B099307238DF8E7
:104F3800293008A9062350488DF82A30FFF7BDF814
:104F4800044668B101F03EFD22464C49FFF78AFF4E
:104F580001F038FD0368DB699847454B01221A7058
:104F6800002502230B958DF82C3001238DF82E3067
:104F7800434B0C93434B40481B680D9303A9FFF721
:104F88000EFA01F01FFD9DF80E2001929DF80D20EC
:104F98009DF80C30009229463B4A01F079FA0BA99A
:104FA8003548FFF72FFA0528044606D101F00AFD17
:104FB800364A294601F06CFA06E050B101F002FDCC
:104FC80022463349FFF74EFF01F0FCFC0368DB691A
:104FD80098472948FFF76FF92748FFF704F904466F
:104FE80068B101F0EFFC22462A49FFF73BFF01F0C8
:104FF800E9FC0368DB6998471D4B01221A70264BB0
:10500800049304A9052325488DF81430FFF7FBFA0B
:10501800044668B101F0D6FC22462149FFF722FF79
:1050280001F0D0FC0368DB699847114B01221A7024
:105038006FF000411B48FFF711FD1B4A1B491C4834
:1050480000F094FC002308220693ADF818200122F2
:1050580007924EF6602106AA184600F099FB0FB099
:1050680030BD00BFA08601006CE30320C57E0D00A3
:10507800FEE20320D1470D0000E30320DA7E0D0095
:105088008CCE032088E20320EF7E0D00047F0D0004
:105098001D7F0D00337F0D00D5490D0074E30320FB
:1050A800497F0D0050E30320607F0D00794E0D000D
:1050B80049590D002DE9F043344BDFF82491DFF80E
:1050C8002481334E01271F70324B02251D70324B4D
:1050D80085B008221A7000F0C7F9304B4FF6FF72FE
:1050E80000241C705C809A80284600F0F5FA2C4851
:1050F8002C4D00F07BF82C48FEF7DBFF2B48FFF720
:1051080065FA2B4B029519682A4B00936A46234689
:105118004846294CCDF80C80FFF716FC6846FFF787
:1051280077FB22463146484601F004FE0295234D9E
:10513800234B00936A463B4642F210712846CDF84D
:105148000C80FFF701FC6846FFF762FB28461D4DFF
:105158002246314601F0EEFD4FF400731A4A1B490E
:105168002846FFF79BFB2846194D1A49224601F0AD
:10517800E1FD1949284601F069FA224617492846EF
:1051880001F0D8FD05B0BDE8F08300BF4BE3032074
:10519800914A0D0044E303200CE3032020E303209D
:1051A8006CE30320B9470D0000E3032074E30320F8
:1051B80084E20320A9470D00F8E20320A8E30320B6
:1051C8006D4B0D002CE30320C7670D00C0D4010010
:1051D80010E3032051480D000C800D00C7650D0039
:1051E80050E30320B5470D0000F03EB9704708B5FD
:1051F80001F05EFD0122402100F0D0FEB0FA80F0FF
:10520800400908BD0000000038B50D4601F050FD0A
:10521800402100F0CCFE01F04BFDE321FEF745FFF5
:1052280001F046FD00F0CAFE01F042FD02224021D5
:1052380000F0B4FE01F03CFD03685B699847044642
:1052480001F036FD03685B699847240204F47F4443
:10525800C0B2204302F02AF823A3D3E9002302F0C6
:105268008BF823A3D3E9002302F0B0F922A3D3E9F2
:10527800002301F0CDFE02F091FA286001F018FD3C
:10528800402100F094FE01F013FDE521FEF70DFF2B
:1052980001F00EFD00F092FE01F00AFD022240210D
:1052A80000F07CFE01F004FD03685B699847044642
:1052B80001F0FEFC03685B699847240204F47F440C
:1052C800C0B220437D2358434FF6FF7390FBF3F0A1
:1052D800063807EE900AF8EEE77A0020C5ED017A65
:1052E80038BD00BFAFF30080D7A3703D0AF7654013
:1052F80000000000E0FFEF40CDCCCCCCCC6C4740A8
:1053080000F0B2B800F0B0B808B5024B1B685B6893
:10531800019308BD4802030008B5024B1B689B684F
:10532800019308BD4802030008B5024B1B68DB68FF
:10533800019308BD4802030008B5024B1B681B69AE
:10534800019308BD4802030008B5024B1B685B695E
:10535800019308BD4802030008B5024B1B68DB69CE
:10536800019308BD4802030008B5024B1B681B6A7D
:10537800019308BD4802030008B5024B1B685B6A2D
:10538800019308BD4802030008B5024B1B689B6ADD
:10539800019308BD4802030008B5024B1B68DB6A8D
:1053A800019308BD4802030008B5024B1B681B6B3C
:1053B800019308BD4802030008B5024B1B685B6CEB
:1053C800019308BD4802030008B5024B1B68DB6E59
:1053D800019308BD4802030008B5024B1B681B6F08
:1053E800019308BD4802030008B5024B1B689B6E79
:1053F800019308BD3402030008B5024B1B685B68C3
:10540800019308BD1802030008B5024B1B689B688E
:10541800019308BD1802030008B5024B1B685B69BD
:10542800019308BD1802030008B5024B1B689B6A6C
:10543800019308BD1802030008B5024B1B685B6C9A
:10544800019308BD1802030008B5024B1B689B6C4A
:10545800019308BD1802030008B5024B1B68DB6DF9
:10546800019308BD1802030008B5024B1B681B68AE
:10547800019308BD2C02030008B5024B1B689B680A
:10548800019308BD2C02030008B5024B1B68DB68BA
:10549800019308BD2C02030008B5024B1B681B6969
:1054A800019308BD2C02030008B5024B1B689B69D9
:1054B800019308BD2C02030008B5024B1B68DB6989
:1054C800019308BD2C02030008B5024B1B681B683A
:1054D800019308BD2802030008B5024B1B68DB686E
:1054E800019308BD2802030008B5024B1B685B69DD
:1054F800019308BD2802030008B5024B1B689B698D
:10550800019308BD2802030008B5024B1B68DB693C
:10551800019308BD2802030008B5024B1B681B6AEB
:10552800019308BD2802030008B5024B1B685B6A9B
:10553800019308BD2802030008B5024B1B689B6A4B
:10554800019308BD2802030008B5024B1B68DB6AFB
:10555800019308BD2802030008B5024B1B681B6BAA
:10556800019308BD2802030008B5024B1B685B6B5A
:10557800019308BD2802030008B5024B1B681B6C89
:10558800019308BD2802030008B5024B1B685B693C
:10559800019308BD6402030008B5024B1B689B68B1
:1055A800019308BD6802030008B5024B1B68DB685D
:1055B800019308BD6802030008B5024B1B68DB694C
:1055C800019308BD3002030008B5024B1B681B6A33
:1055D800019308BD3002030008B5024B1B681B6825
:1055E800019308BD3C02030008B5024B1B68DB6849
:1055F800019308BD3C02030008B5024B1B681B69F8
:10560800019308BD3C02030008B5024B1B685B69A7
:10561800019308BD3C02030008B5024B1B689B6957
:10562800019308BD3C02030008B5024B1B68DB6907
:10563800019308BD3C02030008B5024B1B681B6AB6
:10564800019308BD3C02030008B5024B1B689B6A26
:10565800019308BD3C02030008B5024B1B68DB6AD6
:10566800019308BD3C02030008B5024B1B681B6888
:10567800019308BD4C02030008B5024B1B685B6828
:10568800019308BD4C02030008B5024B1B681B6957
:10569800019308BD4C02030008B5024B1B685B6907
:1056A800019308BD4C02030008B5024B1B689B69B7
:1056B800019308BD4C02030008B5024B1B68DB6967
:1056C800019308BD4C02030008B5024B1B681B6A16
:1056D800019308BD4C02030008B5024B1B685B68C8
:1056E800019308BD2002030008B5024B1B685B69E3
:1056F800019308BD2002030008B5024B1B68DB6C50
:10570800019308BD2002030008B5024B1B685B6DBE
:10571800019308BD2002030008B5034B1B68D3F8AA
:105728008830019308BD00002002030008B5034B30
:105738001B68D3F89430019308BD000020020300D1
:1057480008B5024B1B685B68019308BD440203005F
:1057580008B5024B1B689B68019308BD440203000F
:1057680008B5024B1B68DB68019308BD44020300BF
:1057780008B5024B1B685B69019308BD440203002E
:1057880008B5024B1B681B6A019308BD440203005D
:1057980008B5024B1B689B6B019308BD44020300CC
:1057A80008B5024B1B68DB6B019308BD440203007C
:1057B80008B5024B1B685B68019308BD40020300F3
:1057C80008B5024B1B689B68019308BD40020300A3
:1057D80008B5024B1B68DB68019308BD4002030053
:1057E80008B5024B1B681B69019308BD4002030002
:1057F80008B5024B1B685B69019308BD40020300B2
:1058080008B5024B1B689B69019308BD4002030061
:1058180008B5024B1B68DB69019308BD4002030011
:1058280008B5024B1B681B6A019308BD40020300C0
:1058380008B5024B1B681B6B019308BD40020300AF
:1058480008B5024B1B685B6B019308BD400203005F
:1058580008B5024B1B681B68019308BD1C020300B6
:1058680008B5024B1B685B68019308BD1C02030066
:1058780008B5024B1B689B68019308BD1C02030016
:1058880008B5024B1B685B6A019308BD1C02030044
:1058980008B5024B1B68DB6A019308BD1C020300B4
:1058A80008B5024B1B681B6B019308BD1C02030063
:1058B8000021FFF719BF10B5836804460BB901F042
:1058C80058FAC3689847A3681BB1032221462046AB
:1058D800984720461021BDE8104001F030BA7047C3
:1058E8000020704710B51021044601F028FA204620
:1058F80010BD08B508B1FFF7F5FF08BD38B5C46895
:10590800ECB12378022B02D1E068FFF7A9FF6568A4
:1059180035B12846FEF77CFF1021284601F00FFA22
:10592800A56835B12846FEF773FF1021284601F017
:1059380006FA20461421BDE8384001F000BA38BD07
:1059480010B588B00446684600F080FE694604A891
:1059580000F0BBFE04A8A047044604A800F02FFEF0
:10596800684600F02CFE204608B010BDF0B51024A3
:1059780085B007460E46154600212246684602F0C5
:1059880006F9002269461046ADF8004002970396D2
:105998000195FFF7D5FE05B0F0BD13B5044691E8B3
:1059A800050000234B600B602060626001A8019332
:1059B8000093FFF7C1F8204602B010BD0B680360E2
:1059C80013B15A6801325A607047F7B50C4602ADF8
:1059D80054F8043B45F8083D06460F4601A8214601
:1059E800FFF7ECFF29463046FFF7D7FF01A8FFF77E
:1059F800A3F82046FFF7A0F83846082101F09FF9E0
:105A0800304603B0F0BD13B50B46044603C88DE815
:105A1800030093E8030084E803009DE8030083E89B
:105A2800030002B010BD826810B50AB901F0A1F9EF
:105A3800C368BDE81040184708B5006800F11001B8
:105A4800FFF7F1FF08BD826810B50AB901F091F9B6
:105A5800C368BDE81040184708B5006800F1100198
:105A6800FFF7F1FF08BD38B5002383608B68044653
:105A78000D462BB102229847EB68E360AB68A36040
:105A8800204638BD2DE9F0414FF69C7386B0046876
:105A9800B1F904208B8000230F688DF800300B606B
:105AA8004FF00200D4E84F1F994203D1C4E8450FD4
:105AB800002DF7D102D08DF800106BE014F10C0521
:105AC8001EBFE76022821F460123BFF35F8F0020BD
:105AD800637004F10803BFF35F8F53E8006F43E876
:105AE8000002002AF9D1BFF35F8F002E52D0FFF7D2
:105AF80003FE20B129463046FFF795FF43E03146C3
:105B08006846FFF7B0FFE068B4F9105008B102F03A
:105B180077F804901020ADF81450FEF7B8FA05464F
:105B280030B34FF00008C0F808801820FEF7AFFA2D
:105B38000446C0B1C0F8088001466846FFF763FF15
:105B4800029BA268A360039B0292E268E360BDF82F
:105B58001430A3824FF69C73ADF81430049B039263
:105B68002361CDF810800E4BEB600E4B2C60AB60C0
:105B78000498FFF775FE6846FEF74AFE002229469C
:105B88000948FFF7C1FD3046FEF742FE10213046B6
:105B980001F0D5F83846FFF763FE06B0BDE8F0819E
:105BA800415A0D009D5C0D00BF580D002DE9F04FC6
:105BB8008BB007AD4FF0000B0646994614200C2316
:105BC8000F4690469DF850A0C5F804B0C5F808B037
:105BD8000793FEF75CFA044638B180F800B080F805
:105BE80001B0C0F804B0C0F808B000231020039436
:105BF8000493FEF74CFA28B1012343608360234BDA
:105C08000360C4600490224B08930820FEF73FFA13
:105C1800044628B1039B40F8043B04A9FFF7CEFED5
:105C280000955FFA8AF34A46414638460994FFF7D9
:105C3800A7FDB8B9039B5B7803F0FF0293B94FF651
:105C48009C7305A903A80592ADF81830FFF71AFF51
:105C58000598FFF705FE05A80999FFF7B6FE06A8FF
:105C6800FEF76AFF039B059304A906A8FFF7A6FEA3
:105C780005A93046FFF791FE06A8FEF75DFF04A8C8
:105C8800FEF75AFF30460BB0BDE8F08F747F0D0069
:105C9800095E0D00022AF8B5044606D0032A17D07B
:105CA800012A21D10B6803601EE018200E68FEF758
:105CB800EEF9054650B13146FFF7D5FE3069B6F921
:105CC800147008B101F09CFF2861AF8225600BE0D9
:105CD80004684CB12069FFF7C3FD2046FEF798FD24
:105CE8001821204601F02BF80020F8BD38B5002314
:105CF80083608B6804460D462BB102229847EB68F7
:105D0800E360AB68A360204638BD022A70B504463C
:105D180006D0032A11D0012A18D10B68036015E0B8
:105D280014200E68FEF7B3F9054620B13146FFF797
:105D3800DDFF337C2B74256008E0046834B120460D
:105D4800FEF766FD1421204600F0F9FF002070BD23
:105D5800F0B5002387B00C46BFF35F8F50E8006FA3
:105D680040E80032002AF9D1BFF35F8F002E3FD000
:105D78001846FFF7C1FC074620B121463046FFF719
:105D880062FE2EE0314601A8FFF7B0FF23788DF8B8
:105D980014301020FEF77BF90546D0B18760142037
:105DA800FEF775F9044678B18760014601A8FFF748
:105DB8002AFE039BA268A360049B0392E268E36047
:105DC8009DF81430049223740A4BEB600A4B2C6044
:105DD800AB6001A8FEF71CFD002229460748FFF723
:105DE80093FC3046FEF714FD1021304600F0A7FF63
:105DF80007B0F0BD615A0D00135D0D00BF580D00CE
:105E080030B585B004460D4668461146FFF7DDFDFE
:105E18007CB124B228460DB101F0F2FE029002A92D
:105E28006846ADF80C40FFF72DFE0298FFF718FD05
:105E38001DE000988DF808404FF00102D0E84F3F70
:105E4800A34203D1C0E8412F0029F7D102D08DF831
:105E580008300CE010F10C014FF0010318BF037378
:105E6800BFF35F8F043000F8033CFFF771FF01A810
:105E7800FEF762FE05B030BD002211464068FFF70C
:105E8800CFBC002211464068FFF7DABC0022406808
:105E9800FFF7CEBC002281F001014068FFF7B8BCD3
:105EA80000231A4619464068FFF7AABC00231A4681
:105EB80019464068FFF79CBC002211464068FFF76E
:105EC8008FBC002211464068FFF77ABC00220221ED
:105ED8004068FFF77DBC00231A464068FFF768BC9E
:105EE800024B03225A60024A1A607047C4E3032037
:105EF800907F0D007047F8B5064615460C468F187A
:105F0800BC4206D0336814F8011B9B68304698479A
:105F1800F6E72846F8BD0022007CFFF7FDBA00210D
:105F2800007CFFF701BB0021007CFFF705BB0021C7
:105F3800007CFFF709BB0021007CFFF70DBB10B503
:105F48001421044600F0FBFE204610BD10B504469F
:105F58004FF47A730846A3600021044B20746160F3
:105F68002360FFF709FB204610BD00BFC47F0D006A
:105F78000022007CFFF7A8BA00231A461946007CC5
:105F8800FFF7AABA13B50024007C0094FFF7ACFA17
:105F9800C0B202B010BD0123FFF7F4BF0123D2B293
:105FA800C9B2FFF7EFBF0022007CFFF7A5BAC9B25C
:105FB800FFF7F9BF0022007CFFF7A6BA0121FFF71F
:105FC800F9BF0021007CFFF7CFBA0047F0B585B0D4
:105FD8001C4605460E461746FFF76EFA0020844217
:105FE8004FF0040303908DF80C30A5BF9DF82830BE
:105FF8008DF80E30034603AB009328463B463246E5
:106008000449A8BF8DF80D40FFF74EFA012005B0EE
:10601800F0BD00BFD35F0D00704710B518210446CE
:1060280000F08DFE204610BDF0B5037D062B8DB027
:106038000E4600F104074FF0000402D000F10805F5
:1060480018E00CAD394605F8304D2F232A460A20B2
:10605800FFF79AFA284601F0EEFD33680246DB683E
:106068002946304698470FE024B12E21304600F0EB
:10607800C7F9044415F8011D0A22304600F006FA53
:10608800BD420444F0D120460DB0F0BD10B5054B1B
:106098000446112240F8043B002101F078FD204617
:1060A80010BD00BFEC7F0D000346074A10B543F84A
:1060B800042B01F1100251F8044B43F8044B9142B0
:1060C800F9D10A781A7010BDEC7F0D0010B59DF853
:1060D800084044EA032343EA024242EA01610423F6
:1060E8004160037510BD37B50D788B784A78C9784B
:1060F80000912946FFF7EAFF03B030BD014B024A81
:106108001A607047CCE30320AB800D0000221146D3
:106118004068FFF785BB002211464068FFF790BB37
:1061280000224068FFF784BB002281F0010140682B
:10613800FFF76EBB00231A4619464068FFF760BB9D
:1061480000231A4619464068FFF752BB0022114641
:106158004068FFF745BB002211464068FFF730BB97
:10616800002202214068FFF733BB00231A4640682B
:10617800FFF71EBB38B5054688B104684CB1A36863
:106188001BB103222146204698471021204600F0E3
:10619800D6FD28461421BDE8384000F0D0BD38BDF2
:1061A80010B103685B681847704710B50368044668
:1061B800BBB15868FFF7B0F878B923685A7C12B9B0
:1061C8005868FFF7B9F823685868FFF7BDF82068E2
:1061D8000023236028B1FFF7CDFF206808B1FFF73F
:1061E800C9FF204610BD000038B50C4B03600446BB
:1061F800D0F8CC0108B1FDF74EFFD4F8C45135B141
:106208002846FFF7D2FF0421284600F098FDA06831
:1062180008B1FFF7C5FF204638BD00BFD8800D0084
:1062280038B50D4C0D4B23600025022304F5E470AE
:106238006360A560C4F8C451C4F8C851FFF7BCF83E
:10624800074BC4F8CC5123602046064A0649BDE8EE
:10625800384000F06FBD00BFD0E303200C810D0073
:10626800D8800D00F8E20320F1610D0000231A46E2
:106278004068FFF79DBA002202214068FFF7A8BADC
:10628800002211464068FFF79BBA00221146406879
:10629800FFF7A6BA00231A4619464068FFF7A8BABE
:1062A80000231A4619464068FFF7AABA002281F06F
:1062B80001014068FFF7ACBA00224068FFF7B8BA9E
:1062C800002211464068FFF7BBBA00221146406819
:1062D800FFF7A6BA2DE9F043002495B016460D46FF
:1062E8000746FFF7D3FE214620220CA8009401F0B0
:1062F8004EFC40230C9321466B460CAA3046FFF710
:1063080053F90446002844D1024601216868FFF782
:1063180067FA0221804622466868FFF761FA009E04
:1063280081462146002E34D0002932D17368022BD1
:1063380002D00A2B09D02AE0B8F1000F27D07169E2
:1063480038460431FFF7CFFE20E0B9F1000F1ED028
:106358007469112201A801F01AFC06238DF8143083
:1063680001AD04F108031834186859682A4603C2B5
:106378000833A3421546F7D101A906A807ADFFF7D0
:1063880093FE0FCD3C1D0FC42B6823700121F669C5
:10639800C8E70098FFF700F9384615B0BDE8F08364
:1063A800024B034A1A6000225A607047A0E5032096
:1063B8000C810D00F8B506460D468F180024BD4225
:1063C8000CD0336815F8011B9B68304698470028A5
:1063D80001DB0444F3E7002C08BF04462046F8BD5F
:1063E80070B505460C46084649B101F024FC2B68F7
:1063F800024621462846DB68BDE87040184770BD54
:1064080003689B68184738B50D210546FFF7F8FF64
:106418000A2104462846FFF7F3FF204438BD38B563
:106428000546FFF7DDFF04462846FFF7ECFF20444A
:1064380038BD30B58BB00B4600218DF82410012AE9
:1064480098BF0A220DF12304B3FBF2F505FB1233C2
:1064580003F0FF03092B94BF30333733DBB22146F7
:1064680004F801392B46002DEED1FFF7B9FF0BB028
:1064780030BD10B42AB903685DF8044B9B68C9B2F3
:106488001847D2B25DF8044BFFF7D3BFFFF7F1BF4F
:106498000CB42DE9F04387B000AF07F13804054686
:1064A80054F8049B3C600E4623464A461421381D86
:1064B800FFF7E6F9132805D8391D2846FFF790FF9E
:1064C800044613E000F1080323F00703E846ADEBA8
:1064D800030D411C23464A4668463C60FFF7D0F945
:1064E80069462846FFF77CFF0446C5461EB1284684
:1064F800FFF789FF044420461C37BD46BDE8F0433A
:1065080002B0704710B50446FEF782F9204610BD68
:106518000348044A04490023836000F00BBC00BF11
:10652800A8E50320F8E203200D650D00704710B5BB
:106538001021044600F003FC204610BD70B5084B3E
:106548000360044600250E4640F80C5FFEF72CFF5A
:1065580030462671FFF730F8A560204670BD00BFB1
:1065680040810D000079FFF72FB810B50446FEF7FB
:1065780053FFE060236820465B699847002808DAE3
:10658800FEF74AFFE368C01AA3689842F2D34FF0B7
:10659800FF3010BD2DE9F04180460D468F180C469E
:1065A800BC42A4EB050607D04046FFF7DEFF0028F3
:1065B80002DB04F8010BF3E73046BDE8F08110B5C3
:1065C80004460068FFF74CF9204610BD10B5044694
:1065D800006808B1FFF744F900232360A3606360F3
:1065E80010BD38B504460D4600680131FFF740F983
:1065F80010B184E82100012038BD10B503680446B5
:1066080013B143688B4207D22046FFF7EAFF20B157
:10661800A3680BB922681370012010BD70B50E462F
:10662800114604461546FFF7E8FF18B92046FFF75C
:10663800CDFF09E02A463146A560206801F09CFAA2
:106648002268A3680021D154204670BD38B50023C4
:10665800044603604360836003730D4639B10846FE
:1066680001F0E9FA294602462046FFF7D7FF2046FF
:1066780038BD38B5054600680C4660B16A688B6855
:106688009A4206D3096801F0B3FAA368AB60002305
:106698000AE0FFF7E5F823682B6063686B60A3687E
:1066A800AB60002323606360A36038BD884210B5E7
:1066B8000B46044607D0096819B19A68FFF7AEFF80
:1066C80001E0FFF783FF204610BD10B50023044604
:1066D8000360436083600373FFF7E8FF204610BD43
:1066E800884210B5044601D0FFF7C3FF204610BD0D
:1066F80070B504460E4609B9002070BD6AB18368BA
:10670800D5182946FFF779FF0028F5D02068A36837
:106718003146184401F06CFAA560012070BD10B52F
:106728008A6809680446FFF7E3FF10B92046FFF7B7
:106738004DFF204610BD38B504460D4641B1084608
:1067480001F079FA294602462046FFF7D1FF10B931
:106758002046FFF73BFF204638BD006808B101F02E
:10676800F9B970470EB4FFB509AC054654F8047B77
:10677800019423463A46052102A8FFF781F80C49FF
:1067880006462846FFF762FF31462846FFF735FFE1
:10679800286830B123463A46711C0194FFF770F817
:1067A800A860284604B0BDE8F04003B0704700BFB9
:1067B8000C800D00014600228C20FEF715BE00203B
:1067C800FFF7F8BF044B00204FF6FF72187058808F
:1067D8009A80FEF781BF00BFB8E50320024B1A6814
:1067E800024B1A60704700BF8CE20320C0E503200B
:1067F80070474174704708B5007CFEF725FF20EA12
:10680800E07008BD08B5007CFEF7F6FE20EAE070EF
:1068180008BD08B5007CFEF7FFFE30EA200028BF5F
:106828004FF0FF3008BD08B5007CFEF7EDFE30EAFA
:10683800200028BF4FF0FF3008BD007CFEF7F4BEF3
:1068480010B51421044600F07AFA204610BD70B540
:10685800457C04460E4625B9007CFEF7F5FE002867
:1068680005DD3146207CBDE87040FEF7BDBE2846F8
:1068780070BD000010B5044608461146002262604B
:106888004FF47A72A260054A226001222074627471
:106898001A46FEF7A1FE204610BD00BF7C810D0000
:1068A8000023007CFEF7D8BE0022FFF7F9BF007C6A
:1068B800FEF7C2BE38B50C4D296811F0010411D19C
:1068C8002846FDF7EAFB68B1084A094B0948214602
:1068D800FFF7D0FF2846FDF7E5FB074A07490548BB
:1068E80000F028FA034838BD5CE6032060E6032080
:1068F800D8E50320C4E50320F8E20320F9670D007A
:1069080041747047704708B50021007CFEF7CCFE43
:1069180030EA200028BF4FF0FF3008BD08B501213C
:10692800007CFEF7C1FE30EA200028BF4FF0FF30A0
:1069380008BD08B5007CFEF7AFFE20EAE07008BD90
:1069480008B5007CFEF7A0FE20EAE07008BD007CD8
:10695800FEF7BABE10B51421044600F0F0F920463F
:1069680010BD38B50446007C0D46FEF795FE00289C
:1069780001DC607C28B12946207CFEF79DFE20EAD8
:10698800E07038BD10B50446002363604FF47A7395
:10699800A360054B236001230846217463741146E4
:1069A800FEF762FE204610BDAC810D000022007C7F
:1069B800FEF762BE10B514220446002101F0E7F884
:1069C800204610BD30B50E4D87B001A8FFF7F2FF85
:1069D800296811F0010410D12846FDF75EFB60B16B
:1069E80001AA21460748FFF7CDFF2846FDF75AFBC5
:1069F800054A0649034800F09DF9024807B030BD32
:106A0800E4E60320E8E60320F8E203200D690D0020
:106A1800002211464068FEF7E3BE00221146406896
:106A2800FEF7FEBE002211464068FEF709BF0022AD
:106A38004068FEF7FDBE002281F001014068FEF7C4
:106A4800E7BE00231A4619464068FEF7D9BE002360
:106A58001A4619464068FEF7CBBE00221146406828
:106A6800FEF7AEBE002202214068FEF7B1BE002349
:106A78001A464068FEF79CBE024B04225A60024A3E
:106A88001A607047FCE60320DC810D0008B50C4B4A
:106A980033B1FFF797FF03681B699847002809DCA3
:106AA800084B63B1FFF706FF03681B699847002886
:106AB80003DC08BDAFF30080F2E7FEF713F808BD6A
:106AC80000000000ED4A0D0008B5FFF7DFFFFEF7F4
:106AD800A3FC014B186008BD08E7032007B5002395
:106AE80000931A466FF07701FEF720FE03B05DF8B9
:106AF80004FB000007B543880A2B08D0502B09D1A6
:106B0800094B1B683BB103B05DF804EB1847FFF76E
:106B1800E5FF06E0002300931A466FF07701FEF7C1
:106B280005FE03B05DF804FB04E7032010B5FEF78B
:106B380063FC044601F034F8074B13B12046AFF369
:106B4800008000210448FEF72BFE00210348BDE821
:106B58001040FEF7E1BD00BF00000000FD6A0D0017
:106B6800FEF792BC10B504460F48FFF7FBFC28B1AE
:106B7800A4F10B03022B01D8002010BD00F098F8F7
:106B8800FFF71FFA08B1012CF6D9FFF793FEFFF7BC
:106B98008EFE18B1A4F10903012BEDD9232C8CBF6B
:106BA8000020012010BD00BF2CE70320232838B5A2
:106BB80004460D460AD8FF2908D0FFF7D3FF28B1AD
:106BC80029462046BDE83840FEF756BC38BD38B5E2
:106BD80004460D46FEF758FCFF2810D0062804D8B6
:106BE8004D2323FA00F0C30709D42046FFF7BAFF64
:106BF80028B129462046BDE83840FEF74DBC38BDCF
:106C080030B51C4D89B004462068FEF7FDFBFEF741
:106C180003FC2B682268C01A9042F5D3236833B36B
:106C2800E36823B3251D236928469847002304A950
:106C3800684602930693FEF7E6FE029B069A0292C6
:106C48000693079A039B0793294604A80392FEF725
:106C5800DAFE069BE268E360079B069204A82269B5
:106C680023610792FDF7D4FD6846FDF7D1FD09B011
:106C780030BD00BF08E7032008B5FFF7C1FF0020BB
:106C8800BDE80840FEF760BB10B5074C2368DB077A
:106C980008D42046FDF701FA20B1FEF7C5FB2046CF
:106CA800FDF700FA014810BD0CE7032010E70320A8
:106CB80038B50B4D296811F001040FD12846FDF7AE
:106CC800ECF958B121460748FFF740F92846FDF787
:106CD800E9F9054A0549034800F02CF8014838BD90
:106CE80014E7032018E70320F8E20320FD5E0D00F7
:106CF80070B50C4C0C4E0D4D00212046FFF71EFCC4
:106D080020460B4C3246294600F014F80121204653
:106D1800FFF714FC324629462046BDE8704000F0D3
:106D280009B800BF2CE70320F8E2032035650D0001
:106D38003CE703200B460146184600F00FBFFDF75D
:106D4800A8B90000024B1868BFF35F8F704700BFF7
:106D58004CE7032010B5002814BF04460124204640
:106D6800FEF776FD20B9FFF7EDFF08B18047F6E79B
:106D780010BD08B5FEF78CFD244B1A68D0075CBF20
:106D880001221A60224B1A68D1075CBF01221A60DF
:106D9800204B1A68D2075CBF01221A601E4B1A6882
:106DA800D0075CBF01221A601C4B1A68D1075CBF70
:106DB80001221A601A4B1A68D2075CBF01221A60B6
:106DC800184B1A68D0075CBF01221A60164B1A6864
:106DD800D1075CBF01221A60144B1A68D2075CBF46
:106DE80001221A60124B1A68D0075CBF01221A6090
:106DF800104B1A68D1075CBF01221A600E4B1A6843
:106E0800D2075CBF01221A60704700BF7CE70320ED
:106E180078E7032074E7032070E703206CE703207A
:106E280068E7032064E7032060E703205CE70320AA
:106E380058E7032054E7032050E70320184B1A684B
:106E4800D1075CBF01221A60164B1A68D2075CBFD3
:106E580001221A60144B1A68D0075CBF01221A601D
:106E6800124B1A68D1075CBF01221A60104B1A68CE
:106E7800D2075CBF01221A600E4B1A68D0075CBFAC
:106E880001221A600C4B1A68D1075CBF01221A60F4
:106E98000A4B1A68D2075CBF01221A60704700BF0C
:106EA8009CE7032098E7032094E7032090E703205A
:106EB8008CE7032088E7032084E7032080E703208A
:106EC800184B1A68D1075CBF01221A60164B1A6862
:106ED800D2075CBF01221A60144B1A68D0075CBF46
:106EE80001221A60124B1A68D1075CBF01221A608E
:106EF800104B1A68D2075CBF01221A600E4B1A6841
:106F0800D0075CBF01221A600C4B1A68D1075CBF1E
:106F180001221A600A4B1A68D2075CBF01221A6064
:106F2800704700BFBCE70320B8E70320B4E703209D
:106F3800B0E70320ACE70320A8E70320A4E7032079
:106F4800A0E70320244B1A68D0075CBF01221A600F
:106F5800224B1A68D1075CBF01221A60204B1A68BD
:106F6800D2075CBF01221A601E4B1A68D0075CBFAB
:106F780001221A601C4B1A68D1075CBF01221A60F3
:106F88001A4B1A68D2075CBF01221A60184B1A689C
:106F9800D0075CBF01221A60164B1A68D1075CBF84
:106FA80001221A60144B1A68D2075CBF01221A60CA
:106FB800124B1A68D0075CBF01221A60104B1A687E
:106FC800D1075CBF01221A600E4B1A68D2075CBF5A
:106FD80001221A60704700BFECE70320E8E70320AE
:106FE800E4E70320E0E70320DCE70320D8E70320F9
:106FF800D4E70320D0E70320CCE70320C8E7032029
:10700800C4E70320C0E7032081F0004102E000BF8D
:1070180083F0004330B54FEA41044FEA430594EA50
:10702800050F08BF90EA020F1FBF54EA000C55EA8B
:10703800020C7FEA645C7FEA655C00F0E2804FEA5C
:107048005454D4EB5555B8BF6D420CDD2C4480EA3E
:10705800020281EA030382EA000083EA010180EA6E
:10706800020281EA0303362D88BF30BD11F0004FBC
:107078004FEA01314FF4801C4CEA113102D04042F2
:1070880061EB410113F0004F4FEA03334CEA13332D
:1070980002D0524263EB430394EA050F00F0A78045
:1070A800A4F10104D5F1200E0DDB02FA0EFC22FA40
:1070B80005F2801841F1000103FA0EF2801843FA34
:1070C80005F359410EE0A5F120050EF1200E012A25
:1070D80003FA0EFC28BF4CF0020C43FA05F3C01863
:1070E80051EBE37101F0004507D54FF0000EDCF1DC
:1070F800000C7EEB00006EEB0101B1F5801F1BD385
:10710800B1F5001F0CD349085FEA30004FEA3C0C88
:1071180004F101044FEA445212F5800F80F09A807E
:10712800BCF1004F08BF5FEA500C50F1000041EB82
:10713800045141EA050130BD5FEA4C0C404141EB86
:10714800010111F4801FA4F10104E9D191F0000FAD
:1071580004BF01460020B1FA81F308BF2033A3F130
:107168000B03B3F120020CDA0C3208DD02F1140C27
:10717800C2F10C0201FA0CF021FA02F10CE002F162
:107188001402D8BFC2F1200C01FA02F120FA0CFC5B
:10719800DCBF41EA0C019040E41AA2BF01EB0451A4
:1071A800294330BD6FEA04041F3C1CDA0C340EDCA2
:1071B80004F11404C4F1200220FA04F001FA02F3E5
:1071C80040EA030021FA04F345EA030130BDC4F1A3
:1071D8000C04C4F1200220FA02F001FA04F340EA98
:1071E8000300294630BD21FA04F0294630BD94F049
:1071F800000F83F4801306BF81F480110134013D30
:107208004EE77FEA645C18BF7FEA655C29D094EAA0
:10721800050F08BF90EA020F05D054EA000C04BF1E
:107228001946104630BD91EA030F1EBF0021002009
:1072380030BD5FEA545C05D14000494128BF41F0A8
:10724800004130BD14F580043CBF01F5801130BD0C
:1072580001F0004545F0FE4141F470014FF0000097
:1072680030BD7FEA645C1ABF194610467FEA655C48
:107278001CBF0B46024650EA013406BF52EA0335EA
:1072880091EA030F41F4002130BD00BF90F0000FD8
:1072980004BF0021704730B54FF4806404F1320414
:1072A8004FF000054FF0000150E700BF90F0000FCD
:1072B80004BF0021704730B54FF4806404F13204F4
:1072C80010F0004548BF40424FF000013EE700BFC4
:1072D80042004FEAE2014FEA31014FEA02701FBF54
:1072E80012F07F4393F07F4F81F06051704792F026
:1072F800000F14BF93F07F4F704730B54FF46074A0
:1073080001F0004521F0004120E700BF50EA0102EA
:1073180008BF704730B54FF000050AE050EA010297
:1073280008BF704730B511F0004502D5404261EB07
:1073380041014FF4806404F132045FEA915C3FF448
:10734800DCAE4FF003025FEADC0C18BF03325FEAE1
:10735800DC0C18BF033202EBDC02C2F1200300FA96
:1073680003FC20FA02F001FA03FE40EA0E0021FABB
:1073780002F11444C1E600BF70B54FF0FF0C4CF4A5
:10738800E06C1CEA11541DBF1CEA135594EA0C0F5B
:1073980095EA0C0F00F0DEF82C4481EA030621EA96
:1073A8004C5123EA4C5350EA013518BF52EA0335D1
:1073B80041F4801143F4801338D0A0FB02CE4FF083
:1073C8000005E1FB02E506F00042E0FB03E54FF0B3
:1073D8000006E1FB03569CF0000F18BF4EF0010EAB
:1073E800A4F1FF04B6F5007F64F5407404D25FEAA7
:1073F8004E0E6D4146EB060642EAC62141EA55515A
:107408004FEAC52040EA5E504FEACE2EB4F1FD0C9B
:1074180088BFBCF5E06F1ED8BEF1004F08BF5FEA19
:10742800500E50F1000041EB045170BD06F00046CB
:1074380046EA010140EA020081EA0301B4EB5C0478
:10744800C2BFD4EB0C0541EA045170BD41F4801170
:107458004FF0000E013C00F3AB8014F1360FDEBF95
:10746800002001F0004170BDC4F10004203C35DA71
:107478000C341BDC04F11404C4F1200500FA05F3F4
:1074880020FA04F001FA05F240EA020001F0004295
:1074980021F0004110EBD37021FA04F642EB06010B
:1074A8005EEA430E08BF20EAD37070BDC4F10C0435
:1074B800C4F1200500FA04F320FA05F001FA04F2F9
:1074C80040EA020001F0004110EBD37041F10001E5
:1074D8005EEA430E08BF20EAD37070BDC4F12005F0
:1074E80000FA05F24EEA020E20FA04F301FA05F258
:1074F80043EA020321FA04F001F0004121FA04F200
:1075080020EA020000EBD3705EEA430E08BF20EACF
:10751800D37070BD94F0000F0FD101F00046400009
:1075280041EB010111F4801F08BF013CF7D041EA8B
:10753800060195F0000F18BF704703F0004652008F
:1075480043EB030313F4801F08BF013DF7D043EA60
:107558000603704794EA0C0F0CEA135518BF95EA16
:107568000C0F0CD050EA410618BF52EA4306D1D19D
:1075780081EA030101F000414FF0000070BD50EABC
:10758800410606BF1046194652EA430619D094EA46
:107598000C0F02D150EA013613D195EA0C0F05D130
:1075A80052EA03361CBF104619460AD181EA030184
:1075B80001F0004141F0FE4141F470014FF000003C
:1075C80070BD41F0FE4141F4780170BD70B54FF0D7
:1075D800FF0C4CF4E06C1CEA11541DBF1CEA135557
:1075E80094EA0C0F95EA0C0F00F0A7F8A4EB050439
:1075F80081EA030E52EA03354FEA013100F0888030
:107608004FEA03334FF0805545EA131343EA1263F8
:107618004FEA022245EA111545EA10654FEA0026AD
:107628000EF000419D4208BF964244F1FD0404F566
:10763800407402D25B084FEA3202B61A65EB0305C2
:107648005B084FEA32024FF480104FF4002CB6EB7F
:10765800020E75EB030E22BFB61A754640EA0C00FF
:107668005B084FEA3202B6EB020E75EB030E22BF3F
:10767800B61A754640EA5C005B084FEA3202B6EB80
:10768800020E75EB030E22BFB61A754640EA9C003F
:107698005B084FEA3202B6EB020E75EB030E22BF0F
:1076A800B61A754640EADC0055EA060E18D04FEACD
:1076B800051545EA16754FEA06164FEAC30343EA6D
:1076C80052734FEAC2025FEA1C1CC0D111F4801F3A
:1076D8000BD141EA00014FF000004FF0004CB6E733
:1076E80011F4801F04BF01430020B4F1FD0C88BFD2
:1076F800BCF5E06F3FF6AFAEB5EB030C04BFB6EBDD
:10770800020C5FEA500C50F1000041EB045170BDCF
:107718000EF0004E4EEA113114EB5C04C2BFD4EBFC
:107728000C0541EA045170BD41F480114FF0000E80
:10773800013C90E645EA060E8DE60CEA135594EAFC
:107748000C0F08BF95EA0C0F3FF43BAF94EA0C0FFF
:107758000AD150EA01347FF434AF95EA0C0F7FF474
:1077680025AF104619462CE795EA0C0F06D152EAC8
:1077780003353FF4FDAE1046194622E750EA4106AC
:1077880018BF52EA43067FF4C5AE50EA41047FF4BD
:107798000DAF52EA43057FF4EBAE12E74FEA410220
:1077A800B2F1E04324BFB3F5001CDCF1FE5C0DD957
:1077B80001F0004C4FEAC0024CEA5070B2F1004FA1
:1077C80040EB830008BF20F00100704711F0804FA4
:1077D80021D113F13872BCBF01F00040704741F469
:1077E80080114FEA5252C2F11802C2F1200C10FA6D
:1077F8000CF320FA02F018BF40F001004FEAC12351
:107808004FEAD32303FA0CFC40EA0C0023FA02F3F4
:107818004FEA4303CCE77FEA625307D150EA0133CA
:107828001EBF4FF0FE4040F44000704701F000409A
:1078380040F0FE4040F40000704700BF53B94AB919
:10784800002908BF00281CBF4FF0FF314FF0FF3060
:1078580000F07EB9ADF1080C6DE904CE00F006F831
:10786800DDF804E0DDE9022304B070472DE9F047B4
:107878008C460E460446089D002B50D18A42174676
:107888006CD9B2FA82FEBEF1000F0BD0CEF1200403
:1078980020FA04F401FA0EF644EA060C02FA0EF78E
:1078A80000FA0EF44FEA1749220CBCFBF9F01FFA54
:1078B80087F809FB10C642EA064600FB08F3B34204
:1078C80009D9F61900F1FF3280F02281B34240F263
:1078D8001F8102383E44F61AA2B2B6FBF9F309FB3F
:1078E800136642EA064403FB08F8A04509D9E419DF
:1078F80003F1FF3280F00A81A04540F20781023B84
:107908003C44C8EB040443EA00400021002D62D047
:1079180024FA0EF400232C606B60BDE8F0878B42DC
:1079280007D9002D55D0002185E841000846BDE85B
:10793800F087B3FA83F1002940F09080B34202D374
:10794800824200F2F880841A66EB03060120B446EE
:10795800002D40D085E81010BDE8F08712B9012746
:10796800B7FBF2F7B7FA87FEBEF1000F35D1F31B6C
:107978004FEA17481FFA87FC0121B3FBF8F0220CE5
:1079880008FB103642EA06460CFB00F3B34207D95F
:10799800F61900F1FF3202D2B34200F2CE8010464F
:1079A800F61AA2B2B6FBF8F308FB136642EA0644DD
:1079B8000CFB03FCA44507D9E41903F1FF3202D2FA
:1079C800A44500F2B5801346CCEB040443EA00401A
:1079D8009CE729462846BDE8F087CEF1200106FA43
:1079E8000EF307FA0EF720FA01F94FEA1748CE40CE
:1079F80049EA0309B6FBF8FA4FEA194408FB1A6684
:107A08001FFA87FC44EA06430AFB0CF29A4200FA82
:107A18000EF40AD9DB190AF1FF3180F087809A4207
:107A280040F28480AAF1020A3B449B1A1FFA89F9A2
:107A3800B3FBF8F108FB113349EA034301FB0CF6E9
:107A48009E4207D9DB1901F1FF326BD29E4269D9F8
:107A580002393B449B1B41EA0A418EE7C1F1200EE3
:107A680022FA0EF48B40234320FA0EF706FA01F4AB
:107A78004FEA134C26FA0EF63C43B6FBFCF9270CEA
:107A88000CFB19661FFA83F847EA064609FB08F754
:107A9800B74202FA01F200FA01FA08D9F61809F118
:107AA800FF3041D2B7423FD9A9F102091E44F61B63
:107AB800A0B2B6FBFCF40CFB146640EA064704FBD4
:107AC80008F8B84507D9FF1804F1FF3028D2B8459F
:107AD80026D9023C1F4444EA0940C8EB0707A0FB2B
:107AE80002894F4544464E4614D329D065B3BAEBB4
:107AF800040367EB060707FA0EFECB40CF404EEAB9
:107B0800030385E888000021BDE8F0871346F8E6FE
:107B18001046E0E6B8EB020469EB03060138E5E736
:107B28000446D8E7114695E78146C0E78A467CE7D0
:107B3800023B3C4448E708460AE702383E442FE740
:107B4800C245E7D33E46D1E72946BDE8F08700BFE6
:107B5800704700BF0A22002100F0FCB810B5054CA0
:107B680013462CB10A4601460220AFF3008010BD2F
:107B7800204610BD0000000010B5431E0A44914283
:107B880004D011F8014B03F8014FF8E710BD024487
:107B98000346934202D003F8011BFAE7704700003E
:107BA80038B5124B1C68A36B0546D3B91820FDF7EE
:107BB8004FFE43F20E33A06303804AF6CD33438071
:107BC80041F2342383804EF26D63C3804DF6EC633B
:107BD8000381052343810B23838101220023C0E90C
:107BE8000423A36B00221D615A6138BDF4E203200F
:107BF800034611F8012B03F8012B002AF9D170472D
:107C0800024B0146186800F003B800BFF4E20320F5
:107C180070B5064608460C4600F00DF8451C294686
:107C28003046FDF73DFE064618B12A462146FFF7C5
:107C3800A3FF304670BD034613F8012B002AFBD181
:107C4800181A0138704700002DE9F047804640486F
:107C5800D0F800900F463D4615F8014B09EB04009B
:107C6800407800F0080000F0FF0608B12F46F2E760
:107C78002D2C03D1BD1C7C78012603E02B2C04BFDE
:107C88007C78BD1C13B1102B0AD15BE0302C57D186
:107C9800287800F0DF0058284DD16C781023023581
:107CA800002E14BF4FF0004C6FF0004C0027BCFBB7
:107CB800F3FA384603FB1ACC09EB040E9EF801E0F0
:107CC8001EF0040F01D0303C0BE01EF0030E1BD059
:107CD800BEF1010F0CBF4FF0370E4FF0570ECEEB31
:107CE8000404A34210DDB7F1FF3F0AD0504506D87F
:107CF80001D1644503DC03FB0040012701E04FF09C
:107D0800FF3715F8014BD7E77B1C0CD1002E4FF03D
:107D1800220314BF4FF000406FF00040C8F8003055
:107D28002AB9BDE8F08706B1404272B107B1691EB1
:107D38001160BDE8F0873024002BB1D10823AFE7EC
:107D48000A23ADE7302CA3D0AAE7BDE8F08700BF2F
:107D580090E2032013460A46014602480068FFF7EE
:107D680073BF00BFF4E203201D400D0059400D0011
:107D780085400D0089400D0000000000E7A7E609D6
:107D8800697465726174696F6E7320256400436F4E
:107D980064652069732076616C696421007374617D
:107DA8007274207570646174650065726173650032
:107DB80068706D613A20636865636B73756D2066E2
:107DC80061696C0068706D613A20636865636B7304
:107DD800756D00000000000000000000914A0D00D1
:107DE800D94A0D000B4B0D00617070776474002C3C
:107DF80022706D3235223A25642C22706D31302282
:107E08003A25640068706D61207264790068706D4D
:107E1800612074696D656F757400646174612073A5
:107E2800656E64007D00626C6F62007B0022746581
:107E38006D7065726174757265223A252E32662CF2
:107E48002268756D6964697479223A252E32660054
:107E580074656D70207264790074656D7000746566
:107E68006D7020657272002C2274766F63223A2539
:107E7800642C22633032223A25640074766F6320C2
:107E880072647900666174616C2074766F63206532
:107E980072726F720074766F630074766F63206518
:107EA8007272007570646174652072656164696ED0
:107EB8006720706572696F642025640A00736937EA
:107EC80030323120736574757020657272202564B4
:107ED8000A006363733831312073657475702065E7
:107EE80072722025640A0063637338313120766525
:107EF800722025782E25642E25640A006363733862
:107F08003131206E6F20757064617465206E65650F
:107F18006465640A00636373383131207570646185
:107F28007465206572722025640A006363733831B2
:107F38003120656E61626C65206572722025640A65
:107F48000068706D6131313520656E61626C652045
:107F58006572722025640A007365745F70657269C2
:107F68006F6400000000000000000000E7580D00EA
:107F7800ED580D0005590D00FB580D00E9580D008E
:107F88000000000000000000DF5E0D00D55E0D005F
:107F9800CB5E0D00C15E0D00B55E0D00A95E0D0043
:107FA8009D5E0D00955E0D008B5E0D00815E0D00DF
:107FB800DD620D000000000000000000FD5E0D0005
:107FC800475F0D001F5F0D00FF5E0D00275F0D006E
:107FD8002F5F0D00375F0D003F5F0D0000000000B0
:107FE8000000000031600D0021600D0023600D00CD
:107FF8006C6E00666E00636F646500646574616929
:108008006C000D0A00253031307520005D20002CF1
:10801800200028293A2000205B00636F6465203D1A
:10802800200025690064657461696C73203D200037
:10803800626175640053657269616C0053657269A9
:10804800616C31007479706500706172616D0063F4
:108058006D6400696400686E64007374726D006614
:10806800696C74006C766C0061646448616E646C61
:1080780065720072656D6F766548616E646C6572D5
:1080880000656E756D48616E646C657273004A5365
:108098004F4E53747265616D4C6F6748616E646CC6
:1080A800657200617070006E6F6E65007472616356
:1080B8006500696E666F007761726E0070616E6947
:1080C8006300616C6C00000000000000000000000C
:1080D80073610D0069610D005F610D0055610D0050
:1080E80049610D003D610D0031610D0029610D00F0
:1080F8001F610D0015610D00DD620D00000000001C
:108108000000000075620D007F620D0089620D009D
:1081180093620D009D620D00A9620D00B5620D000D
:10812800C1620D00C9620D00D3620D00DD620D0051
:10813800000000000000000035650D0037650D00E7
:108148005A00252B3033643A253032750025592DD5
:10815800256D2D25645425483A254D3A2553257A11
:108168000061736374696D65000000000000000021
:1081780000000000F9670D0049680D0057680D0000
:10818800BD630D000D680D002F680D001B680D0004
:1081980043680D00FB670D00FF670D00000000003D
:1081A800000000000D690D005D690D006B690D0090
:1081B800BD630D0049690D000F690D0025690D00AB
:1081C80057690D003B690D0009690D0000000000AA
:1081D80000000000776A0D006D6A0D00636A0D00EB
:1081E800196A0D00576A0D004B6A0D003F6A0D00B1
:1081F800376A0D002D6A0D00236A0D00DD620D003F
:10820800000020202020202020202028282828287E
:108218002020202020202020202020202020202056
:1082280020208810101010101010101010101010AE
:1082380010100404040404040404040410101010AE
:108248001010104141414141410101010101010169
:1082580001010101010101010101010101101010D9
:10826800101010424242424242020202020202023C
:1082780002020202020202020202020202101010AC
:1082880010200000000000000000000000000000B6
:1082980000000000000000000000000000000000D6
:1082A80000000000000000000000000000000000C6
:1082B80000000000000000000000000000000000B6
:1082C80000000000000000000000000000000000A6
:1082D8000000000000000000000000000000000096
:1082E8000000000000000000000000000000000086
:1082F8000000000000000000000000000000000076
:108308000000000000000000000000000000000065
:108318000000000000000000000000000000000055
:108328000000000000000000000000000000000045
:108338000000000000000000000000000000000035
:108348000000000000000000000000000000000025
:108358000000000000000000000000000000000015
:108368000000000043000000CD450D00D1450D0080
:1083780091470D00BD500D00F1510D0009530D003E
:108388000D530D00E95E0D0005610D0029620D0019
:10839800A9630D0019650D00CD670D00E5670D0097
:1083A800816A0D00F96C0D00816D0D00456E0D00A0
:0883B800C96E0D004D6F0D00B0
:0883C000B4F4FF7F010000008E
:1083C800704EF41E2DA78D4FFC88804902DC1710D3
:1083D800B00E5A648C35B88981D4ACB38FA3529B44
:1083E8008A8FA0A47E19763EB249B952E5F61E6975
:1083F8003CB1445F91A2DCD22D36352E99D1441B75
:108408000547C006E4BC914121256FB11E5E811E5F
:10841800F6FA591DCE74ED1517E7D02DDED46C721F
:1084280019DB890E05763D9EB6DAF90854B00D4A77
:108438009F2CDAC7CEDA09DD3841F995CC91828FC5
:1084480099C3FB14CD77629680654CFBE269ACD08A
:10845800B30F3037B62EC7394408E186EAE45D2108
:1084680057A0E6C98B287F5341B8AE1E4B32D5EDD5
:108478002904835C16B5F83DF5E4A8E2F0C9089034
:10848800E4AB0360CBF8CA2FF3505D9D2830323B34
:10849800596A70F10077B3A2D87BB3A7D8711CECE6
:1084A800320CE5C7645AA97B72D51631E7D971D960
:1084B800BD425C9167C251BED85A3C842409DCC2D3
:1084C800DBB98E63C38C94D4D0FEF6C2B22CECD246
:1084D800565265452424325199D2808702FF713B58
:1084E8009B31A787AD771E17253B3A599E2FC5FFAD
:1084F800DC8E64A85AC0F840E609AD030BF4E6E345
:1085080073F9919DB03059D36B4EA472D65D9BD64A
:10851800838ACCF64545A070E10BB2AB015951CB2B
:10852800917B940FFBAD74968306A1B28B8BD5E635
:10853800987EECCB3813AF000DB72024A1F545DCAD
:10854800A2BB2FB0AD904AC6C893F810243DB4879B
:10855800F5CD27DDAF3C35165E0D388EE3397CD678
:10856800F428C4711CE630F9EF017DF4794C51937D
:108578007C78C12911CBB5C17F3DEAF66BDA02E5FB
:1085880078566721E2D8BE7C09FA1DC9E464D39500
:108598005B0C9EE101BC28BD1FF43AEC15D90962B9
:1085A80002EEA1578B30D13D4056C09947066899D5
:1085B8009A907DAC827524EBCC4EA2B5EB2CACCC5A
:1085C800878A196F70A2C6DAEF7D2B18FDF2407109
:1085D800BC5868797BD886B076593AF965FC363448
:1085E800307A795569D2B03F17740B0F28B64635E3
:1085F80035774F830EE3DD2DA1014C7283D2D36012
:10860800297697999C03730A1DFBB9D0ED6C171551
:108618004075D3677D28F4109A427AD60F87A5C291
:10862800DAC293B9A523FC1D6263AE6165F6BCA5E9
:1086380013A29C0FBA28045DE3984F5306ED7030DF
:10864800651E1A72BCE3322D2139EE09BA3D0CD9E8
:1086580086018BF43340A4820B0029CA390FD36EEC
:108668005BFC22DF6D663235458F3B1DBAA8D68D7F
:1086780043604C9CA683BC668F5198557A99547672
:10868800C1929C3BE63A67609B80D5FC258DF22021
:108698006FDFFBC612C1DAD548B440BE348186B458
:1086A800394F06A83E1768CE01CF2264FB8804D84C
:1086B80073DACB0FF0A7B09E1B543E40D3C8CC173B
:1086C8002E1954696BE94D2B4054BB75EC75FFECC2
:1086D800AE60586CE66ABCFF9532E0760E87C483BC
:1086E80001FF749158B719FD0B644FFD836C85D851
:1086F800846B676FFB409320619C885175F9EEDDB0
:10870800D224C0F40165A4B4B9B44BCD309377F446
:10871800C2AAE23BA5B975C0EDD10BEA63B4FAE78A
:108728004D465683A36450D129E565EFB327146EEF
:10873800E3CD0F19075588918B5FDA219CAC928B9A
:10874800B4FA1AB3EE1204D38E3A70D2A9862FAABD
:108758008D22D39F82CFBE9B8835B09E3BAC1678C6
:108768003AC84D690561CB8797C52DCA4F81CCA7FB
:1087780014A788F6D0F70EEBD39DF5D3A89E73B453
:1087880074A1FD8EEA72DC24201A70A1923B42E0AB
:1087980024BF57B11792DF48FB912F09969D2A9F56
:1087A800C9F878D01EF614031C7E1E0EB374A43EBE
:1087B80043487AA89447D56F13C9D73A0D90E7A8CC
:1087C800D4AC51AB923EF9EBF38D0A2575D9B9F5C6
:1087D800C7AE9AEE3EACA81FCE9E872E06660865E9
:1087E800419037110AB292562F6F8A11FB8B34B51C
:1087F800FA7C1E57CF95394795EA08F41F5F5665EE
:10880800EC01E0407609029EB3B828EFEE564265C7
:1088180068537272A1C57366A08CB931E918E4680F
:10882800C1684C7FFBF0ED5939A273E45413453A03
:108838005BA6C6C48750B7239E40191091CEBAF4E0
:10884800B4ED663E97BBB1AD1B6E1C1D1B885FF770
:10885800AC6CCFE494E5B0699EC33910C5016BD602
:108868000A3124FE755DD0F99F5EA0071037D83411
:10887800B93265F209317C4AC086130537C52D4CDB
:10888800FE32C8600F69578BD9E95DFC0FFCC60240
:108898001FC2BA792C52C6D89FF13377EE48C385E8
:1088A800631ED8E78842B2EB3737891F3B0EF35671
:1088B80041256ED06D1D1F9A3B9797B52F02AA3F91
:1088C80071A4BC0AA0C7AEB8E8087AED64EE68EFF8
:1088D80029C04A07B803AAE3E7296BD0406E19A458
:1088E800F57DCB75972F64C6C9782E69BEBFBB10BE
:1088F80022767CB1ECAA4CB398156CD9735B8B7358
:10890800A404B167DB7F83AE77A830B54396CF4127
:1089180071CF3FDD3655CB8CD8DFB3CFF114EB8761
:10892800CC6E90FED0CF3A5A6B07E4C4B78CA33014
:10893800FCEC6632DB3BF667018873BB64FEEC2B0C
:10894800E33C6E9BA56D22F91C7F1C10EA16AFCF85
:1089580018684B8C2A4583AED8534F73B134CAE795
:108968007955BDE338230688BB8F5BD430408F7CB4
:10897800D312928575B0A5445BECE76D45BE4F8177
:1089880025EE7825C6C7BB6E8C1B21A292A7C20D07
:1089980014726AFC44EAB90EA9201D7568CD0A4311
:1089A800239AF57E316E5FC86DADA1F6687CB2A7DB
:1089B800C5AD7569D5D23401D6C16DBE8F69D529CB
:1089C80050AE2FA42C689674A128B0F095A578BC59
:1089D800C0A6A5399534BBE37E9F973DC0681B7838
:1089E800021357CFFA68DBEE6B8D63F6200EBF17C4
:1089F80050F1936A657E33D3704F6ACE0EB8F0EEAD
:108A080019CAA2E99078421A50D486F1F513821A4D
:108A1800E439CAB479D62111DEFFCB52877A1DB862
:108A28001AC44B3FC9DAD8DAAD6C82D4870D876F88
:108A3800B8525877B3A8F5E2DF3113125AAE3FAFF8
:108A480085D8E38ED2A35002D37C8A973958F4CACA
:108A5800397D56AE60CAB5CE9181485E3C435EBB57
:108A68005186269E296F5E57C2BA3AEA0F2EA73A58
:108A780073A09F9696F459788A5AF03E8A2B4AD268
:108A8800DA5580AFD9D5A6C3929DB540038D74BB86
:108A9800355E6EA8D58444242B0D78503A3545941C
:108AA800F56F938544C5D225EBDCF311EEEC335B0F
:108AB800C4063AE1B4273A63818279C56D2249C870
:108AC8001E2EEC569B6C73A7E6BABCC8E6716D39CE
:108AD800B46A3F6F1BA6CE319EA07B2273E971E575
:108AE800CBD6BF692F1B68262F57D8C97744D3FA2E
:108AF800CFA57E39E0A7A0587F206CABD9BE9FAA2E
:108B08005556DCF7F0C5CDD8A9367EFBF86283113F
:108B1800749AB0398A9871ACE3074217207EEFDC6B
:108B2800EA2F6431BA08727C8B8030B830A8521DA5
:108B380098ACA1F0FED340476372E47934A5967CE3
:108B48007F345C741194828F7B7B02BA9CB30F24B0
:108B5800532BAC05F39FA75D84614511FF3A740A56
:108B68009421969E58BED1139209825F7F663B5D21
:108B78002B012463E2D545F1B9CDB3D15098E7FC78
:108B8800140C7CA4519CDBAEC5F1979CCFA7B67C96
:108B98000B593E2FF64C24C43A35EDC4A5C8CD4533
:108BA80015213C1BC00B0122848B945682A9BC035F
:108BB800C54F12B3E0A4E1B98D10663EEB61C9213F
:108BC80079C1C3265EC5B05FA28776AE350A54D692
:108BD800099F0A2E98FFB598FF85D9006DF30526E1
:108BE8008C63EF695F5C8278A275425F6F73835B09
:108BF800C22F0272F4F67B2FC5C0B584BC4630FD87
:108C0800F7A110BF368C909466071F57B461B5B1B1
:108C18008A989E5C0AB653B56C01A8ECE1C3502152
:108C2800BD6CE436C91C9D4A36FA216096596F2DF1
:108C3800B8758E45038CC5EE0C306082995B4B7914
:108C4800CD68B3C0E31A6B343D951106569529617A
:108C58007B5E86A91A5F4D98689C8D10913CBF4C2D
:108C68000DBC8BF78B850CF66E7E82685C7AF257AA
:108C780087D9AFE50FF1B9F77EEFC474BD01307E37
:108C8800F49326086EE9D74E1431E99DB3BFEB2063
:108C980086102C0D94E9B31DA554952B360B906ABC
:108CA800C786BF09661200B33B2DF110009B94EBF9
:108CB8000685413C750F0075283BF8555C74AA5B26
:108CC800CF885466FB979F23BC7963577558C49B1C
:108CD80039E93B34331CCC751B3EB9B750A9BF905A
:108CE800C5B9E3312352B9CDDA526FA41E6F1D0105
:108CF800920A2B97830703870B71F823234A239F34
:108D0800F6E3B174D17C4158FA4BB258BF004CC15C
:108D18009ABD17AF77EE27632AC0D681CEBA660010
:108D28000F69EAD225F6CCD85ADA5ED0371156EC5C
:108D3800B20499BD359FA6D92E4DA78180146EE641
:108D4800B7C0FC1CFA4C5ABE332E81B7D216CC845D
:108D580057729A0CA61EC7C5641866A03EF79BC634
:108D6800D99DEB4FAA2B89F3D2027F7CD7F5002C33
:108D780092A6515BE44371A4AF22A10CEC51FF729F
:108D8800BE1F48A5D63B73852AA2E21ECAE008E3A7
:108D9800A397E3FE9BE18AA1B43F81D73459654686
:108DA800A86D990773A418814942F383E08179E497
:108DB8003FC69B5E63430CFA2762635A5A7ABCA487
:108DC800622E099FF0F91B560907A518537E8A7B66
:108DD800A22FC1F79BC28A8C1509B9FD6E5E4F4759
:108DE8009C30251D359A1771F277816B301026A6B5
:108DF80081355DD096E17B7D9E8C5C283A9DD9E6D5
:108E08004AE6CE089FB63FAE0A80F990629D04F00C
:108E18003854773E22C2E1F4A5B3884AC9D3DC7539
:108E2800B8936F756F6B6E3C64D23A6E7B3C233996
:108E3800677894925D8738117C99975F2FFE4F4D24
:108E48002E1CB6C2B22D3570DEC96CC5D935BBD55E
:108E5800DBFA5AF8E0F082333D87F654B32536D86A
:108E68005D5F3C962FD88A809A6963C95200367A2A
:108E78006E25A41B8BB2F649CD939E8C50D52D5EE2
:108E8800859569C75359733DD2FB40EABC74E0210C
:108E980079859557CD5910D2D2DD059879E00C9295
:108EA800F5CF0BA6E20CE355D7D2F312A7F2C81CF4
:108EB80070215B8B4D9CCD2801F16A0CB1B555989A
:108EC800F40BFA40D9E57DFF0DA34604BA28A6782D
:108ED8008AE1E3CFD97B623169A5B389DAE67BE31E
:108EE8005D6A8CB48508741A7FD349F631F05EF157
:108EF8004654C20930A9ECABB4BFE95E5BD3454523
:108F0800657895C563BCC02D2A6ACCF1DB9EE84222
:108F18006683391138CF3FAB6C8286D76B734E4A64
:108F28005099F1F156B57550F4080B417D1D21C6D5
:108F3800A2DE524BC2A96B5B135BEEDF7ED1EFE67C
:108F48006CB6FF1D54CBDF3FE348BBEF428F3A7945
:108F58003709321FC7AD2B7497761A6D23612A9390
:108F6800E3DB146D5E3956E7420D6D5E9DC9D45042
:108F78009F19FD7F6339DAB1D173B42B9494C3F18F
:108F880063FB97D01505A1234537892A294AA0559F
:108F9800749F926ED54EC8F30E20EDD5F102FC8970
:108FA800E0B3BE014FEE87B1B6160979502DFCF932
:108FB8001E1B1CF4051FA8D1FBE8DB842DB3F69615
:108FC80069D895C52D52E29DB4C132450FECFBBC62
:108FD8008CBAEC9052C69CCE06F738483603859575
:108FE800B0C80DD7EFD8D1622EF28E507502DF14BB
:108FF8007C915A7DD215A52C87B8DF91E17507358C
:10900800A4DBB0D347320593799D60CECDC3C20DA2
:109018003B422D1BFF3DCB86E34B5B359871E7FC4C
:1090280032C909D2A45F5BDB6E90DEBF31BB1DFD88
:109038000108E50C6D5286ACD1FE956E317F45A1D5
:109048009318D955C2C6C009BCBFC2385123069C63
:109058002A79C3A7F484A66B0952FC8B3CADCBFFDD
:1090680058A0612BD3CB9697504E3A1F209F799BDF
:109078009213CD1CC9DF624D44927747AEA53FF1EC
:10908800685228F8D25883E3E1140C85FF0E3E5449
:10909800E5F1E0ADB73117E82F1FF13C829CF13CB8
:1090A80081F26C3615C6F0D3AF4DD6AA462F759D02
:1090B8008F4EAC100D5C7D4F9E3587D8EF28F19D03
:1090C800D26AC0B52BA3BFA259C6AC7BE982465C65
:1090D80078ED4497021D4E10F6FD2A81D287F71CC1
:1090E8004D6B93629215CF31C3566F44674711CECB
:1090F800982F721D5D75A4D47C694D08ED6C8902AA
:10910800C90B3F2A56DD307CFD4BBB36B516A07F18
:10911800C570E58C1A443EFCD708441396AD525AE4
:10912800A7B9D67D0154079F360C30E3E7AC4560FC
:10913800840E355C90947C0C76B4E4652C3C608994
:1091480034F24F60FBBAFF22D52446FC809F14CB33
:10915800508E64C59BB2C07EA6EDADB1129BD7EF11
:109168004F33663C6EC368BA9EBF7FD95DBB2EA6DF
:109178008FBF5702C625881BA57C3C46E4C12E310B
:1091880086B4C14FCB6F577C8DE2B32E9CDF6E82C5
:109198008889FD62079FEE8520E5DD6959C7C7A864
:1091A80087C974524DE4302E2D7264F8D26D167052
:1091B800506A01ED18F0F5F766EBF3F4BAC68FBE06
:1091C800AD3569F8135E1AD1358DEA1F53D8867309
:1091D8006C2ACB74A42DA26554E2296D24A54B6F8B
:1091E800FE12E784CFF75DC8B520362528E469115B
:1091F8008C79AB4653067E1D9386EA8F03D1514D79
:109208009C734059C8667BC6A02535F1031BC7C5AA
:10921800B7F5288AF775107DE4E7E382BE35672342
:10922800B765BFE1895EEF1CF61737B195139C8AC5
:10923800698C168566279ABCC38AF3F9A2D35EB5F2
:109248008706C84B0F483213F1C3DD8124F857A1B4
:10925800CEDFEB7246046F6B6B4EC32A84987D0594
:109268001F0B2A7ED63BC0A65CDFC13BF8EB7FE62E
:109278002A6BFBA735EEFB53C9773246E7ADC877B3
:10928800FB0686D4A4742FA477ACA89B710D022A80
:10929800547A867175BEB2B839E5C06487304AC160
:1092A800AF32A30293B30FAC53BBEE88F6CD05F9EA
:1092B800ACFEE0AB9A7059076E6B7EB076D42A4E3E
:1092C80092E9E1DAF6BC91030D3FEE8AD07254B30D
:1092D800492E40A21B61FACA47D26BA4E073E31C73
:1092E80056949FD048870F7702F627C12112E8E8E5
:1092F800F032D85D850E2247A2DF794EA8A8CB4D63
:10930800D64A8BA635D31BDE98D38A928168AE8263
:10931800F9729892840C7C75500B5031D468D4063D
:109328009361ACF3984CE321300E99138D8E03C9E9
:10933800794F9337025A25701F063D912F7315BF39
:10934800630F7A225B5BFA7ACD86DCC0B75CA8BF74
:109358003CE4BF9913BC6CE2073A2E4FD0EEB36CD5
:109368008644C96F3A0EC55F84D42A8F97A5568361
:1093780064B72B2170711A63D40EF0D9830F7DE482
:1093880023DD59195158D28A6C774A87BD72CBB3FD
:10939800B41542608416532A262C1D839B7867E6F1
:1093A8004E49311498F595B39F3F3F772BBB267BE9
:1093B800B0E71A93E823FD3D870AB3034F9D077F63
:1093C800F694D9EB44A3A58A9D631C29E96F8E7A8C
:1093D800051FB560D71C88CA279ED6920BA31E3ED0
:1093E8004E07D40F1C2ADDB11A150869AE4EAED946
:1093F800D2E88FD978EE370BF343BAC7C203DEEE53
:10940800A7BE87F6564B0BD6ACE08DC341A281D1DF
:109418006C040460CC40ABAA29822152C4D5FB2B32
:10942800FF5F3EF27216D7F479CB1D2923F5F4902D
:10943800EE559F5E4876C69D1CB878503B81F06714
:10944800BE48D90A16A70E3364B9798204C60C2916
:109458004B7D1D40E65514AD4216C073A26CA01595
:10946800E6C3E859A028FE513480E3D30CD0828E9D
:10947800D260E684E87FDF2AD26D00CEE4BE71F4C4
:10948800F48D331D99C412167414434D25E8D78AF8
:10949800F1EC369714110090E87891BF07FF708DB2
:1094A80058A5C5F7339DF8430FC3763B8B0A78A4BC
:1094B800A0627DE88C4EFFCBA72C17F4F3B01528DB
:1094C80058B998BAE51C16D642965E3B0ED0DE8394
:1094D800D5D068F3D506087EECF7FCF4B9B93103AA
:1094E8004C3B82A594A78E74B64696B52479DA705B
:1094F8003A6F2B8A05BBFFF87B7BBC1984A28F16B9
:10950800074C6D808DE5DF34D851825BC713126E2E
:109518002C99E39AF103AE19B97D8941E9CC789782
:109528002CADCEC703E5A1930914F4FB0431727284
:10953800059EC1DE1F26B24B18CF1F4B903A081567
:10954800BFAD404C58287641DEBB75E95DA15AE8AD
:10955800E8701D44E866F8201B00778201EBBCC365
:10956800B38D36DC9D2A2A087180D86BB954EE5821
:10957800A00863EC55C6B3F59B890E1638AFFFF704
:109588003E33C5560989E27ABFA251EE033049BE7F
:1095980032A324E55B0E95819C588140AD8035BC93
:1095A800A3E084269DC374970F521DDB4D7F26DEF2
:1095B80055B8401DC653C3774D8C00E1D4C1A5A250
:1095C800DB069FC54C4B7555300E1E8D015656FD5A
:1095D800633BAA94CCE89EBDBADA39A8F2021AEB2A
:1095E80045B430EE458EEA29B9017D11CCD4E83670
:1095F8000C44B847903E4275953C2C94C5DAF22647
:109608001B47026F989F1C4F069557C40839214A7B
:10961800106BBFD97C63E5909DAB7E1E7F5D26B144
:10962800559A720B6F430D7E3E1FBD9C2FC47DDA89
:10963800B40E98AA58DB26EFCAC802BE9DA6975654
:1096480027F640AA232616E97EF08F5BAAF32C0D95
:109658002ED8DED3CF8A9EF83C63AE41F3B85DE3E3
:109668002F4A4FE3EC1F6A894968AEAB8D25A5BD2B
:10967800EE4777387B0A00C4D447A3A3AD868B2F67
:1096880061818D7531FDAA2CEB89CE46AF58FF5C00
:10969800E02083A8F8C6B24D0941480A4E7893DC09
:1096A800119315D828A990F913191CE99BF7D53AF5
:1096B800649B15B224E6C4C15C1505E39920951A8C
:1096C8007CD80A3D34A90F41F37B24BFEEE87D60C6
:1096D80062243123F8D3FEB6ECA5EBD3295C606A8B
:1096E8008245C4936797248EB7CFAA7A491DFC9107
:1096F800FD4CDB1511E20D9A0084D56792DBE36F10
:109708007AA6CDF4EAEF8A59A558D5649A961A9E96
:1097180047F87AC22F283DBF7583CF91E7E0B4EAB6
:109728007BBAA09C93C262AA96AA1798CCEBB2D631
:10973800EDC36265C590F55F964EC1377519EA9617
:109748003CF19F0CBB012FB0ECB75A5D81913837C3
:10975800D2C32EC1DBA7DF49BB56EA21114CCAA2EE
:109768008CA881F82ECB1EDD09719DA41A4C21DA34
:10977800BCA670D4225119EA0167BB0126FD64CD4D
:109788001D32B4FE3E73A426899A7758841ACD02F6
:10979800FA7B3036A0717E13139B58FCAA7D3327C1
:1097A8003C73A69308AAEAE480BB5A3D3A7C0F9C16
:1097B800302FD402CB40EC91C0D40100F813000044
:1097C80069810D0009820D00000000000C830D0066
:1097D8002C830D004C830D000000000000000000E9
:1097E80000000000000000006C830D000000000075
:1097F8000000000000000000000000000000000061
:109808000000000000000000000000000000000050
:109818000000000000000000000000000000000040
:0C982800000000000000000094E203209B
:10983400FFFFFFFF00000102030405060708090AF1
:109844000B0C0D0E0F101112131415161718191AEC
:089854001B1C1D1E1F20280033
:04985C0078563412F4
:04000003D0004018D1
:00000001FF
